:020000020000FC
:0400000014C085C0E3
:02000C006AC0C8
:02000A005BC0D9
:10002A000FED0DBF01B3007001BB0FEF07BB002737
:10003A0008BB01B3006601BB959896981CE2E0E6FE
:10004A00F0E0002701931A951123E1F703E00EBDB2
:10005A0008E40DBD05EE0CBD882409B7006809BF88
:10006A0001E003BF03EC02BF2224332444245524B5
:10007A0005B70D7F016005BF0BB700640BBF2227D0
:10008A00789400E108BB802E09B7006809BF30FFE9
:10009A00FECF0CE04016D9F70027802E08BBF0D01F
:1000AA0030FF02C03E7F5CD031FF05C03D7F81D06A
:1000BA00222309F0EED0F4CF0F930FB70F9308E481
:1000CA000DBD05EE0CBD08B3082508BB959896989A
:1000DA000F910FBF0F9118950F930FB70F930BB78F
:1000EA000F7B0BBF03EC02BF43954E3020F031600B
:1000FA0009B70D7F09BF0BB700640BBF0F910FBF84
:10010A000F9118951F930F930FB70F930BB70F7B90
:10011A000BBF09B701FD08C0442709B7026009BF30
:10012A0022243324442404C0483010F04C3008F010
:10013A000FC04427220C331C01E0829B202A4394DF
:10014A0010E402B3012702BB8299959A829B959883
:10015A000BB700640BBF0F910FBF0F911F9118953A
:10016A00EF93FF931F930F930FB70F933D7F042DC8
:10017A000750A8F00CE0401609F45524E0E6F0E038
:10018A00052D000F000FE00F0027F01F519241923A
:10019A002192308232600BE0401609F053942224F7
:1001AA00332444240F910FBF0F911F91FF91EF91B8
:1001BA001895EF93FF931F930F930FB70F93E0E6F2
:1001CA00F0E0222701810C3009F044C002810F3C83
:1001DA0039F403810F70002319F42068959A49C0F5
:1001EA0002810F3079F413811F7000271795001FC1
:1001FA001795001F1795001F1795001F07700061BC
:10020A00202F37C00281102F087F003E79F4038126
:10021A000F70083059F400271795001F1795001F13
:10022A001795001F07700860202F23C00281102F26
:10023A00087F003D79F403810F70083059F40027D4
:10024A001795001F1795001F1795001F077000626A
:10025A00202F0FC00581093061F406811781169598
:10026A000795102F107E103E21F403700064202F92
:10027A0000C00F910FBF0F911F91FF91EF91089549
:10028A00EF93FF931F930F930FB70F9300E0702E16
:10029A0086C1EF93FF931F930F930FB70F93762C9B
:1002AA001127F2E0ECEEE60D0027F01F099400E0BA
:1002BA00602E552702E008BB162D24FF08C0022F26
:1002CA000770003009F416E0053009F415E026FF3E
:1002DA0005C0022F0170013009F417E027FD10E074
:1002EA00712E671409F461C102E000958022C19859
:1002FA0056C101E0602E00E408BB51E0162D24FF30
:10030A0008C0022F0770023009F412E0053009F420
:10031A0015E025FD18E027FD10E0712E671409F499
:10032A0044C1002708BB3BC102E0602E00E608BBBF
:10033A00550F162D24FF08C0022F0770033009F449
:10034A0013E0053009F415E025FD18E027FD10E05B
:10035A00712E671409F429C1002708BB20C103E0E4
:10036A00602E00E708BB550F162D24FF08C0022F88
:10037A000770043009F414E0053009F415E025FD8E
:10038A0018E027FD10E0712E671409F40EC100274A
:10039A0008BB05C104E0602E08E708BB550F162DFF
:1003AA0024FF05C0022F0770053009F415E025FD6A
:1003BA0018E027FD10E0712E671409F4F6C0002733
:1003CA0008BBEDC005E0602E0CE708BB550F162DE3
:1003DA0024FF09C0022F0770003011F416E003C091
:1003EA00013009F411E025FD18E027FD10E0712E17
:1003FA00671409F4DAC0002708BBD1C006E0602EF2
:10040A0002E008BB162D24FF08C0022F0770053032
:10041A0021F415E054FF01C01AE026FF05C0022F9F
:10042A000170013009F417E025FD18E023FD19E0F9
:10043A0027FD10E0712E671409F4B7C0002708BB26
:10044A00AEC007E0602E09B7006009BF08E40DBD21
:10045A0005EE0CBD09B7006809BFC09A01E0802A01
:10046A00162D26FF05C0022F0170003009F416E090
:10047A0027FD10E0712E671409F497C001E000957A
:10048A008022C0988CC008E0602EC09A022F0770A4
:10049A0010E4053011F414E405C0002319F00A959C
:1004AA001695FBCF09B7006009BF08E40DBD05EE3C
:1004BA000CBD09B7006809BF812E08B3012B08BB20
:1004CA00162D24FF1CCF022F0770003009F416E006
:1004DA0024FF05C0022F0770053009F415E027FD37
:1004EA0010E0712E671409F460C00027802E08BB43
:1004FA0056C009E0602E552709B7006009BF08E415
:10050A000DBD05EE0CBD09B7006809BFC19A02E02E
:10051A00802A022F077010E4053011F414E405C094
:10052A00002319F00A951695FBCF08B3012B08BBD7
:10053A00162D24FF05C0022F0770053009F415E0B7
:10054A0027FD10E0712E671409F42FC00027802EB2
:10055A0008BB25C00AE0602E09B7006009BF08E49D
:10056A000DBD05EE0CBD09B7006809BF0CE708BB55
:10057A00802E162D24FF05C0022F0770003009F4C3
:10058A0016E0013009F411E027FD10E0712E67141E
:10059A0009F40BC00CE70095802208BB00C0F2E00A
:1005AA00E1EEE70D0027F01F09940F910FBF0F919D
:1005BA001F91FF91EF9108957ACE9BCEB5CECFCE03
:1005CA00E9CE00CF1BCF3DCF5ECF93CFC3CF74CE42
:1005DA0095CEAFCEC9CEE3CEFACE14CF41CF70CFEF
:0405EA00A7CFC7CF01
:00000001FF
